{
  "_format": "hh-sol-artifact-1",
  "contractName": "WavePortal",
  "sourceName": "contracts/WavePortal.sol",
  "abi": [
    {
      "inputs": [],
      "stateMutability": "payable",
      "type": "constructor"
    },
    {
      "anonymous": false,
      "inputs": [
        {
          "indexed": true,
          "internalType": "address",
          "name": "from",
          "type": "address"
        },
        {
          "indexed": false,
          "internalType": "uint256",
          "name": "timestamp",
          "type": "uint256"
        },
        {
          "indexed": false,
          "internalType": "string",
          "name": "message",
          "type": "string"
        }
      ],
      "name": "NewWave",
      "type": "event"
    },
    {
      "inputs": [],
      "name": "getAllWaves",
      "outputs": [
        {
          "components": [
            {
              "internalType": "address",
              "name": "waver",
              "type": "address"
            },
            {
              "internalType": "string",
              "name": "message",
              "type": "string"
            },
            {
              "internalType": "uint256",
              "name": "timestamp",
              "type": "uint256"
            }
          ],
          "internalType": "struct WavePortal.Wave[]",
          "name": "",
          "type": "tuple[]"
        }
      ],
      "stateMutability": "view",
      "type": "function"
    },
    {
      "inputs": [],
      "name": "getTotalWaves",
      "outputs": [
        {
          "internalType": "uint256",
          "name": "",
          "type": "uint256"
        }
      ],
      "stateMutability": "view",
      "type": "function"
    },
    {
      "inputs": [
        {
          "internalType": "address",
          "name": "",
          "type": "address"
        }
      ],
      "name": "lastWavedAt",
      "outputs": [
        {
          "internalType": "uint256",
          "name": "",
          "type": "uint256"
        }
      ],
      "stateMutability": "view",
      "type": "function"
    },
    {
      "inputs": [
        {
          "internalType": "string",
          "name": "_message",
          "type": "string"
        }
      ],
      "name": "wave",
      "outputs": [],
      "stateMutability": "nonpayable",
      "type": "function"
    }
  ],
  "bytecode": "0x60806040526200004f6040518060400160405280601981526020017f57652068617665206265656e20636f6e737472756374656421000000000000008152506200007760201b620005fc1760201c565b606444426200005f91906200017c565b6200006b9190620001e6565b600181905550620002dc565b62000117816040516024016200008e9190620002b8565b6040516020818303038152906040527f41304fac000000000000000000000000000000000000000000000000000000007bffffffffffffffffffffffffffffffffffffffffffffffffffffffff19166020820180517bffffffffffffffffffffffffffffffffffffffffffffffffffffffff83818316178352505050506200011a60201b60201c565b50565b60008151905060006a636f6e736f6c652e6c6f679050602083016000808483855afa5050505050565b6000819050919050565b7f4e487b7100000000000000000000000000000000000000000000000000000000600052601160045260246000fd5b6000620001898262000143565b9150620001968362000143565b9250828201905080821115620001b157620001b06200014d565b5b92915050565b7f4e487b7100000000000000000000000000000000000000000000000000000000600052601260045260246000fd5b6000620001f38262000143565b9150620002008362000143565b925082620002135762000212620001b7565b5b828206905092915050565b600081519050919050565b600082825260208201905092915050565b60005b838110156200025a5780820151818401526020810190506200023d565b60008484015250505050565b6000601f19601f8301169050919050565b600062000284826200021e565b62000290818562000229565b9350620002a28185602086016200023a565b620002ad8162000266565b840191505092915050565b60006020820190508181036000830152620002d4818462000277565b905092915050565b61121580620002ec6000396000f3fe608060405234801561001057600080fd5b506004361061004c5760003560e01c8063449d46c0146100515780639a2cdc081461006d578063a42a46631461008b578063bd43a908146100bb575b600080fd5b61006b600480360381019061006691906108b4565b6100d9565b005b61007561048a565b6040516100829190610916565b60405180910390f35b6100a560048036038101906100a0919061098f565b610493565b6040516100b29190610916565b60405180910390f35b6100c36104ab565b6040516100d09190610b6b565b60405180910390f35b4260038060003373ffffffffffffffffffffffffffffffffffffffff1673ffffffffffffffffffffffffffffffffffffffff168152602001908152602001600020546101259190610bbc565b10610165576040517f08c379a000000000000000000000000000000000000000000000000000000000815260040161015c90610c4d565b60405180910390fd5b42600360003373ffffffffffffffffffffffffffffffffffffffff1673ffffffffffffffffffffffffffffffffffffffff1681526020019081526020016000208190555060016000808282546101bb9190610bbc565b925050819055506102016040518060400160405280600d81526020017f257320686173207761766564210000000000000000000000000000000000000081525033610695565b600260405180606001604052803373ffffffffffffffffffffffffffffffffffffffff16815260200183815260200142815250908060018154018082558091505060019003906000526020600020906003020160009091909190915060008201518160000160006101000a81548173ffffffffffffffffffffffffffffffffffffffff021916908373ffffffffffffffffffffffffffffffffffffffff16021790555060208201518160010190816102b99190610e79565b50604082015181600201555050606460015442446102d79190610bbc565b6102e19190610bbc565b6102eb9190610f7a565b6001819055506032600154116104375761033a6040518060400160405280600781526020017f257320776f6e210000000000000000000000000000000000000000000000000081525033610695565b6000655af3107a4000905047811115610388576040517f08c379a000000000000000000000000000000000000000000000000000000000815260040161037f9061101d565b60405180910390fd5b60003373ffffffffffffffffffffffffffffffffffffffff16826040516103ae9061106e565b60006040518083038185875af1925050503d80600081146103eb576040519150601f19603f3d011682016040523d82523d6000602084013e6103f0565b606091505b5050905080610434576040517f08c379a000000000000000000000000000000000000000000000000000000000815260040161042b906110f5565b60405180910390fd5b50505b3373ffffffffffffffffffffffffffffffffffffffff167f5f7e16dc676677766a70e9c5628aa6c54ddb8b6e5188e2ae1e1f17f1ffbea716428360405161047f92919061114e565b60405180910390a250565b60008054905090565b60036020528060005260406000206000915090505481565b60606002805480602002602001604051908101604052809291908181526020016000905b828210156105f357838290600052602060002090600302016040518060600160405290816000820160009054906101000a900473ffffffffffffffffffffffffffffffffffffffff1673ffffffffffffffffffffffffffffffffffffffff1673ffffffffffffffffffffffffffffffffffffffff16815260200160018201805461055890610c9c565b80601f016020809104026020016040519081016040528092919081815260200182805461058490610c9c565b80156105d15780601f106105a6576101008083540402835291602001916105d1565b820191906000526020600020905b8154815290600101906020018083116105b457829003601f168201915b50505050508152602001600282015481525050815260200190600101906104cf565b50505050905090565b61069281604051602401610610919061117e565b6040516020818303038152906040527f41304fac000000000000000000000000000000000000000000000000000000007bffffffffffffffffffffffffffffffffffffffffffffffffffffffff19166020820180517bffffffffffffffffffffffffffffffffffffffffffffffffffffffff8381831617835250505050610731565b50565b61072d82826040516024016106ab9291906111af565b6040516020818303038152906040527f319af333000000000000000000000000000000000000000000000000000000007bffffffffffffffffffffffffffffffffffffffffffffffffffffffff19166020820180517bffffffffffffffffffffffffffffffffffffffffffffffffffffffff8381831617835250505050610731565b5050565b60008151905060006a636f6e736f6c652e6c6f679050602083016000808483855afa5050505050565b6000604051905090565b600080fd5b600080fd5b600080fd5b600080fd5b6000601f19601f8301169050919050565b7f4e487b7100000000000000000000000000000000000000000000000000000000600052604160045260246000fd5b6107c182610778565b810181811067ffffffffffffffff821117156107e0576107df610789565b5b80604052505050565b60006107f361075a565b90506107ff82826107b8565b919050565b600067ffffffffffffffff82111561081f5761081e610789565b5b61082882610778565b9050602081019050919050565b82818337600083830152505050565b600061085761085284610804565b6107e9565b90508281526020810184848401111561087357610872610773565b5b61087e848285610835565b509392505050565b600082601f83011261089b5761089a61076e565b5b81356108ab848260208601610844565b91505092915050565b6000602082840312156108ca576108c9610764565b5b600082013567ffffffffffffffff8111156108e8576108e7610769565b5b6108f484828501610886565b91505092915050565b6000819050919050565b610910816108fd565b82525050565b600060208201905061092b6000830184610907565b92915050565b600073ffffffffffffffffffffffffffffffffffffffff82169050919050565b600061095c82610931565b9050919050565b61096c81610951565b811461097757600080fd5b50565b60008135905061098981610963565b92915050565b6000602082840312156109a5576109a4610764565b5b60006109b38482850161097a565b91505092915050565b600081519050919050565b600082825260208201905092915050565b6000819050602082019050919050565b6109f181610951565b82525050565b600081519050919050565b600082825260208201905092915050565b60005b83811015610a31578082015181840152602081019050610a16565b60008484015250505050565b6000610a48826109f7565b610a528185610a02565b9350610a62818560208601610a13565b610a6b81610778565b840191505092915050565b610a7f816108fd565b82525050565b6000606083016000830151610a9d60008601826109e8565b5060208301518482036020860152610ab58282610a3d565b9150506040830151610aca6040860182610a76565b508091505092915050565b6000610ae18383610a85565b905092915050565b6000602082019050919050565b6000610b01826109bc565b610b0b81856109c7565b935083602082028501610b1d856109d8565b8060005b85811015610b595784840389528151610b3a8582610ad5565b9450610b4583610ae9565b925060208a01995050600181019050610b21565b50829750879550505050505092915050565b60006020820190508181036000830152610b858184610af6565b905092915050565b7f4e487b7100000000000000000000000000000000000000000000000000000000600052601160045260246000fd5b6000610bc7826108fd565b9150610bd2836108fd565b9250828201905080821115610bea57610be9610b8d565b5b92915050565b600082825260208201905092915050565b7f5761697420337300000000000000000000000000000000000000000000000000600082015250565b6000610c37600783610bf0565b9150610c4282610c01565b602082019050919050565b60006020820190508181036000830152610c6681610c2a565b9050919050565b7f4e487b7100000000000000000000000000000000000000000000000000000000600052602260045260246000fd5b60006002820490506001821680610cb457607f821691505b602082108103610cc757610cc6610c6d565b5b50919050565b60008190508160005260206000209050919050565b60006020601f8301049050919050565b600082821b905092915050565b600060088302610d2f7fffffffffffffffffffffffffffffffffffffffffffffffffffffffffffffffff82610cf2565b610d398683610cf2565b95508019841693508086168417925050509392505050565b6000819050919050565b6000610d76610d71610d6c846108fd565b610d51565b6108fd565b9050919050565b6000819050919050565b610d9083610d5b565b610da4610d9c82610d7d565b848454610cff565b825550505050565b600090565b610db9610dac565b610dc4818484610d87565b505050565b5b81811015610de857610ddd600082610db1565b600181019050610dca565b5050565b601f821115610e2d57610dfe81610ccd565b610e0784610ce2565b81016020851015610e16578190505b610e2a610e2285610ce2565b830182610dc9565b50505b505050565b600082821c905092915050565b6000610e5060001984600802610e32565b1980831691505092915050565b6000610e698383610e3f565b9150826002028217905092915050565b610e82826109f7565b67ffffffffffffffff811115610e9b57610e9a610789565b5b610ea58254610c9c565b610eb0828285610dec565b600060209050601f831160018114610ee35760008415610ed1578287015190505b610edb8582610e5d565b865550610f43565b601f198416610ef186610ccd565b60005b82811015610f1957848901518255600182019150602085019450602081019050610ef4565b86831015610f365784890151610f32601f891682610e3f565b8355505b6001600288020188555050505b505050505050565b7f4e487b7100000000000000000000000000000000000000000000000000000000600052601260045260246000fd5b6000610f85826108fd565b9150610f90836108fd565b925082610fa057610f9f610f4b565b5b828206905092915050565b7f547279696e6720746f207769746864726177206d6f7265206d6f6e657920746860008201527f616e207468657920636f6e7472616374206861732e0000000000000000000000602082015250565b6000611007603583610bf0565b915061101282610fab565b604082019050919050565b6000602082019050818103600083015261103681610ffa565b9050919050565b600081905092915050565b50565b600061105860008361103d565b915061106382611048565b600082019050919050565b60006110798261104b565b9150819050919050565b7f4661696c656420746f207769746864726177206d6f6e65792066726f6d20636f60008201527f6e74726163742e00000000000000000000000000000000000000000000000000602082015250565b60006110df602783610bf0565b91506110ea82611083565b604082019050919050565b6000602082019050818103600083015261110e816110d2565b9050919050565b6000611120826109f7565b61112a8185610bf0565b935061113a818560208601610a13565b61114381610778565b840191505092915050565b60006040820190506111636000830185610907565b81810360208301526111758184611115565b90509392505050565b600060208201905081810360008301526111988184611115565b905092915050565b6111a981610951565b82525050565b600060408201905081810360008301526111c98185611115565b90506111d860208301846111a0565b939250505056fea26469706673582212206a925151f74c6532443854fa02e46c5188db0e73507f75af23699a269b9a504b64736f6c63430008110033",
  "linkReferences": {},
  "deployedLinkReferences": {}
}